{
  "contractName": "MyDetails",
  "abi": [
    {
      "constant": false,
      "inputs": [
        {
          "name": "ipfsHash",
          "type": "string"
        }
      ],
      "name": "setHash",
      "outputs": [],
      "payable": false,
      "stateMutability": "nonpayable",
      "type": "function"
    },
    {
      "constant": true,
      "inputs": [
        {
          "name": "account",
          "type": "address"
        }
      ],
      "name": "getHash",
      "outputs": [
        {
          "name": "",
          "type": "string"
        },
        {
          "name": "",
          "type": "uint256"
        }
      ],
      "payable": false,
      "stateMutability": "view",
      "type": "function"
    }
  ],
  "bytecode": "0x608060405234801561001057600080fd5b5061047c806100206000396000f3fe60806040526004361061004c576000357c0100000000000000000000000000000000000000000000000000000000900463ffffffff1680631da0b8fc146100515780631ed83fd414610122575b600080fd5b34801561005d57600080fd5b506100a06004803603602081101561007457600080fd5b81019080803573ffffffffffffffffffffffffffffffffffffffff1690602001909291905050506101ea565b6040518080602001838152602001828103825284818151815260200191508051906020019080838360005b838110156100e65780820151818401526020810190506100cb565b50505050905090810190601f1680156101135780820380516001836020036101000a031916815260200191505b50935050505060405180910390f35b34801561012e57600080fd5b506101e86004803603602081101561014557600080fd5b810190808035906020019064010000000081111561016257600080fd5b82018360208201111561017457600080fd5b8035906020019184600183028401116401000000008311171561019657600080fd5b91908080601f016020809104026020016040519081016040528093929190818152602001838380828437600081840152601f19601f820116905080830192505050505050509192919290505050610311565b005b606060008060008473ffffffffffffffffffffffffffffffffffffffff1673ffffffffffffffffffffffffffffffffffffffff168152602001908152602001600020600160008573ffffffffffffffffffffffffffffffffffffffff1673ffffffffffffffffffffffffffffffffffffffff16815260200190815260200160002054818054600181600116156101000203166002900480601f0160208091040260200160405190810160405280929190818152602001828054600181600116156101000203166002900480156103015780601f106102d657610100808354040283529160200191610301565b820191906000526020600020905b8154815290600101906020018083116102e457829003601f168201915b5050505050915091509150915091565b806000803373ffffffffffffffffffffffffffffffffffffffff1673ffffffffffffffffffffffffffffffffffffffff16815260200190815260200160002090805190602001906103639291906103ab565b5042600160003373ffffffffffffffffffffffffffffffffffffffff1673ffffffffffffffffffffffffffffffffffffffff1681526020019081526020016000208190555050565b828054600181600116156101000203166002900490600052602060002090601f016020900481019282601f106103ec57805160ff191683800117855561041a565b8280016001018555821561041a579182015b828111156104195782518255916020019190600101906103fe565b5b509050610427919061042b565b5090565b61044d91905b80821115610449576000816000905550600101610431565b5090565b9056fea165627a7a7230582059e8eb90e6506c65c6b31ee3499f859f30cbae694038cfbb9c755a1e5ba336120029",
  "source": "pragma solidity ^0.5.0;\n\ncontract MyDetails {\n   \n    mapping (address => string) ipfsHashes;\n    mapping (address => uint) timestamp;\n    \n    function setHash(string memory ipfsHash) public {\n       ipfsHashes[msg.sender] = ipfsHash;\n       timestamp[msg.sender] = now;\n    }\n\n    function getHash(address account) public view returns(string memory, uint) {\n      return (ipfsHashes[account], timestamp[account]);\n    }\n\n}",
  "sourcePath": "/home/chocopower/Documents/dapp-starter-kit/src/ethereum/contracts/MyDetails.sol",
  "compiler": {
    "name": "solc",
    "version": "0.5.0+commit.1d4f565a.Emscripten.clang"
  },
  "schemaVersion": "3.0.2",
  "updatedAt": "2019-02-25T16:53:53.653Z",
  "devdoc": {
    "methods": {}
  },
  "userdoc": {
    "methods": {}
  }
}